{
  "contractName": "SmartBlogs",
  "abi": [
    {
      "inputs": [],
      "payable": false,
      "stateMutability": "nonpayable",
      "type": "constructor"
    },
    {
      "constant": false,
      "inputs": [
        {
          "internalType": "string",
          "name": "blogTitle",
          "type": "string"
        },
        {
          "internalType": "string",
          "name": "blogContent",
          "type": "string"
        },
        {
          "internalType": "uint256",
          "name": "value",
          "type": "uint256"
        }
      ],
      "name": "addBlog",
      "outputs": [],
      "payable": false,
      "stateMutability": "nonpayable",
      "type": "function"
    },
    {
      "constant": true,
      "inputs": [],
      "name": "listBlogs",
      "outputs": [
        {
          "components": [
            {
              "internalType": "uint256",
              "name": "blogId",
              "type": "uint256"
            },
            {
              "internalType": "string",
              "name": "blogTitle",
              "type": "string"
            },
            {
              "internalType": "enum SmartBlogs.BlogType",
              "name": "paid",
              "type": "uint8"
            },
            {
              "internalType": "uint256",
              "name": "value",
              "type": "uint256"
            },
            {
              "internalType": "address",
              "name": "ownerId",
              "type": "address"
            },
            {
              "internalType": "uint256",
              "name": "purchasedBy",
              "type": "uint256"
            },
            {
              "internalType": "uint256",
              "name": "likes",
              "type": "uint256"
            }
          ],
          "internalType": "struct SmartBlogs.BlogTitle[]",
          "name": "",
          "type": "tuple[]"
        }
      ],
      "payable": false,
      "stateMutability": "view",
      "type": "function"
    },
    {
      "constant": true,
      "inputs": [],
      "name": "listFreeBlogs",
      "outputs": [
        {
          "components": [
            {
              "internalType": "uint256",
              "name": "blogId",
              "type": "uint256"
            },
            {
              "internalType": "string",
              "name": "blogTitle",
              "type": "string"
            },
            {
              "internalType": "enum SmartBlogs.BlogType",
              "name": "paid",
              "type": "uint8"
            },
            {
              "internalType": "uint256",
              "name": "value",
              "type": "uint256"
            },
            {
              "internalType": "address",
              "name": "ownerId",
              "type": "address"
            },
            {
              "internalType": "uint256",
              "name": "purchasedBy",
              "type": "uint256"
            },
            {
              "internalType": "uint256",
              "name": "likes",
              "type": "uint256"
            }
          ],
          "internalType": "struct SmartBlogs.BlogTitle[]",
          "name": "",
          "type": "tuple[]"
        }
      ],
      "payable": false,
      "stateMutability": "view",
      "type": "function"
    },
    {
      "constant": false,
      "inputs": [
        {
          "internalType": "uint256",
          "name": "blogId",
          "type": "uint256"
        }
      ],
      "name": "payForBlog",
      "outputs": [],
      "payable": true,
      "stateMutability": "payable",
      "type": "function"
    },
    {
      "constant": true,
      "inputs": [
        {
          "internalType": "uint256",
          "name": "blogId",
          "type": "uint256"
        }
      ],
      "name": "viewBlog",
      "outputs": [
        {
          "components": [
            {
              "internalType": "uint256",
              "name": "blogId",
              "type": "uint256"
            },
            {
              "internalType": "string",
              "name": "blogTitle",
              "type": "string"
            },
            {
              "internalType": "string",
              "name": "blogContent",
              "type": "string"
            },
            {
              "internalType": "enum SmartBlogs.BlogType",
              "name": "paid",
              "type": "uint8"
            },
            {
              "internalType": "uint256",
              "name": "value",
              "type": "uint256"
            },
            {
              "internalType": "address payable",
              "name": "ownerId",
              "type": "address"
            },
            {
              "internalType": "uint256",
              "name": "purchasedBy",
              "type": "uint256"
            },
            {
              "internalType": "uint256",
              "name": "likes",
              "type": "uint256"
            }
          ],
          "internalType": "struct SmartBlogs.Blog",
          "name": "",
          "type": "tuple"
        }
      ],
      "payable": false,
      "stateMutability": "view",
      "type": "function"
    },
    {
      "constant": true,
      "inputs": [],
      "name": "getBlogsPaidFor",
      "outputs": [
        {
          "components": [
            {
              "internalType": "uint256",
              "name": "blogId",
              "type": "uint256"
            },
            {
              "internalType": "string",
              "name": "blogTitle",
              "type": "string"
            },
            {
              "internalType": "string",
              "name": "blogContent",
              "type": "string"
            },
            {
              "internalType": "enum SmartBlogs.BlogType",
              "name": "paid",
              "type": "uint8"
            },
            {
              "internalType": "uint256",
              "name": "value",
              "type": "uint256"
            },
            {
              "internalType": "address payable",
              "name": "ownerId",
              "type": "address"
            },
            {
              "internalType": "uint256",
              "name": "purchasedBy",
              "type": "uint256"
            },
            {
              "internalType": "uint256",
              "name": "likes",
              "type": "uint256"
            }
          ],
          "internalType": "struct SmartBlogs.Blog[]",
          "name": "",
          "type": "tuple[]"
        }
      ],
      "payable": false,
      "stateMutability": "view",
      "type": "function"
    },
    {
      "constant": true,
      "inputs": [],
      "name": "getOwnedBlogs",
      "outputs": [
        {
          "components": [
            {
              "internalType": "uint256",
              "name": "blogId",
              "type": "uint256"
            },
            {
              "internalType": "string",
              "name": "blogTitle",
              "type": "string"
            },
            {
              "internalType": "string",
              "name": "blogContent",
              "type": "string"
            },
            {
              "internalType": "enum SmartBlogs.BlogType",
              "name": "paid",
              "type": "uint8"
            },
            {
              "internalType": "uint256",
              "name": "value",
              "type": "uint256"
            },
            {
              "internalType": "address payable",
              "name": "ownerId",
              "type": "address"
            },
            {
              "internalType": "uint256",
              "name": "purchasedBy",
              "type": "uint256"
            },
            {
              "internalType": "uint256",
              "name": "likes",
              "type": "uint256"
            }
          ],
          "internalType": "struct SmartBlogs.Blog[]",
          "name": "",
          "type": "tuple[]"
        }
      ],
      "payable": false,
      "stateMutability": "view",
      "type": "function"
    },
    {
      "constant": true,
      "inputs": [
        {
          "internalType": "uint256",
          "name": "blogId",
          "type": "uint256"
        }
      ],
      "name": "getBlogViewers",
      "outputs": [
        {
          "internalType": "address[]",
          "name": "",
          "type": "address[]"
        }
      ],
      "payable": false,
      "stateMutability": "view",
      "type": "function"
    },
    {
      "constant": false,
      "inputs": [
        {
          "internalType": "uint256",
          "name": "blogId",
          "type": "uint256"
        }
      ],
      "name": "donate",
      "outputs": [],
      "payable": true,
      "stateMutability": "payable",
      "type": "function"
    },
    {
      "constant": false,
      "inputs": [
        {
          "internalType": "uint256",
          "name": "blogId",
          "type": "uint256"
        }
      ],
      "name": "likeBlog",
      "outputs": [],
      "payable": false,
      "stateMutability": "nonpayable",
      "type": "function"
    }
  ],
  "bytecode": "0x60806040526000805534801561001457600080fd5b50612a38806100246000396000f3fe6080604052600436106100915760003560e01c8063c6fdb42111610059578063c6fdb4211461015a578063c7fe017e14610185578063f14faf6f146101c2578063fba4c1f8146101de578063fc99d9051461020957610091565b80631ee4840f146100965780632bb4fb4f146100c157806331825f30146100dd57806375f6bc4214610106578063a3dff1351461012f575b600080fd5b3480156100a257600080fd5b506100ab610246565b6040516100b891906126d4565b60405180910390f35b6100db60048036036100d691908101906120aa565b61053b565b005b3480156100e957600080fd5b5061010460048036036100ff91908101906120aa565b6109ab565b005b34801561011257600080fd5b5061012d6004803603610128919081019061202b565b610b6e565b005b34801561013b57600080fd5b50610144610e95565b60405161015191906126d4565b60405180910390f35b34801561016657600080fd5b5061016f611110565b60405161017c91906126f6565b60405180910390f35b34801561019157600080fd5b506101ac60048036036101a791908101906120aa565b61139c565b6040516101b991906127b8565b60405180910390f35b6101dc60048036036101d791908101906120aa565b611916565b005b3480156101ea57600080fd5b506101f36119a4565b60405161020091906126f6565b60405180910390f35b34801561021557600080fd5b50610230600480360361022b91908101906120aa565b611c30565b60405161023d91906126b2565b60405180910390f35b6060600080905060008090505b60068054905081101561029c5760006006828154811061026f57fe5b9060005260206000209060080201600401541461028f5781806001019250505b8080600101915050610253565b506060816040519080825280602002602001820160405280156102d957816020015b6102c6611d74565b8152602001906001900390816102be5790505b509050600080905060008090505b6006805490508110156105315760006006828154811061030357fe5b9060005260206000209060080201600401541415610524576040518060e001604052806006838154811061033357fe5b90600052602060002090600802016000015481526020016006838154811061035757fe5b90600052602060002090600802016001018054600181600116156101000203166002900480601f0160208091040260200160405190810160405280929190818152602001828054600181600116156101000203166002900480156103fc5780601f106103d1576101008083540402835291602001916103fc565b820191906000526020600020905b8154815290600101906020018083116103df57829003601f168201915b505050505081526020016006838154811061041357fe5b906000526020600020906008020160030160009054906101000a900460ff16600181111561043d57fe5b81526020016006838154811061044f57fe5b90600052602060002090600802016004015481526020016006838154811061047357fe5b906000526020600020906008020160050160009054906101000a900473ffffffffffffffffffffffffffffffffffffffff1673ffffffffffffffffffffffffffffffffffffffff168152602001600683815481106104cd57fe5b9060005260206000209060080201600601548152602001600683815481106104f157fe5b90600052602060002090600802016007015481525083838060010194508151811061051857fe5b60200260200101819052505b80806001019150506102e7565b5081935050505090565b600080905060008090505b600360003373ffffffffffffffffffffffffffffffffffffffff1673ffffffffffffffffffffffffffffffffffffffff1681526020019081526020016000208054905081101561060957600360003373ffffffffffffffffffffffffffffffffffffffff1673ffffffffffffffffffffffffffffffffffffffff16815260200190815260200160002081815481106105da57fe5b9060005260206000209060080201600001548314156105fc5760019150610609565b8080600101915050610546565b506000151581151514610651576040517f08c379a000000000000000000000000000000000000000000000000000000000815260040161064890612738565b60405180910390fd5b6006828154811061065e57fe5b90600052602060002090600802016004015434146106b1576040517f08c379a00000000000000000000000000000000000000000000000000000000081526004016106a890612798565b60405180910390fd5b600260008381526020019081526020016000203390806001815401808255809150509060018203906000526020600020016000909192909190916101000a81548173ffffffffffffffffffffffffffffffffffffffff021916908373ffffffffffffffffffffffffffffffffffffffff1602179055505060026000838152602001908152602001600020805490506006838154811061074c57fe5b906000526020600020906008020160060181905550600360003373ffffffffffffffffffffffffffffffffffffffff1673ffffffffffffffffffffffffffffffffffffffff168152602001908152602001600020600683815481106107ad57fe5b9060005260206000209060080201908060018154018082558091505090600182039060005260206000209060080201600090919290919091506000820154816000015560018201816001019080546001816001161561010002031660029004610817929190611dd2565b506002820181600201908054600181600116156101000203166002900461083f929190611dd2565b506003820160009054906101000a900460ff168160030160006101000a81548160ff0219169083600181111561087157fe5b0217905550600482015481600401556005820160009054906101000a900473ffffffffffffffffffffffffffffffffffffffff168160050160006101000a81548173ffffffffffffffffffffffffffffffffffffffff021916908373ffffffffffffffffffffffffffffffffffffffff160217905550600682015481600601556007820154816007015550505060006006838154811061090d57fe5b906000526020600020906008020160050160009054906101000a900473ffffffffffffffffffffffffffffffffffffffff1690508073ffffffffffffffffffffffffffffffffffffffff166108fc6006858154811061096857fe5b9060005260206000209060080201600401549081150290604051600060405180830381858888f193505050501580156109a5573d6000803e3d6000fd5b50505050565b80600081101580156109c1575060068054905081105b610a00576040517f08c379a00000000000000000000000000000000000000000000000000000000081526004016109f790612778565b60405180910390fd5b600080905060008090505b6005600085815260200190815260200160002080549050811015610ab7573373ffffffffffffffffffffffffffffffffffffffff16600560008681526020019081526020016000208281548110610a5e57fe5b9060005260206000200160009054906101000a900473ffffffffffffffffffffffffffffffffffffffff1673ffffffffffffffffffffffffffffffffffffffff161415610aaa57600191505b8080600101915050610a0b565b508015610ac45750610b6a565b600560008481526020019081526020016000203390806001815401808255809150509060018203906000526020600020016000909192909190916101000a81548173ffffffffffffffffffffffffffffffffffffffff021916908373ffffffffffffffffffffffffffffffffffffffff16021790555050600160068481548110610b4a57fe5b906000526020600020906008020160070160008282540192505081905550505b5050565b610b76611e59565b604051806101000160405280600054815260200185815260200184815260200160008414610ba5576000610ba8565b60015b6001811115610bb357fe5b81526020018381526020013373ffffffffffffffffffffffffffffffffffffffff168152602001600081526020016000815250905033600160008054815260200190815260200160002060006101000a81548173ffffffffffffffffffffffffffffffffffffffff021916908373ffffffffffffffffffffffffffffffffffffffff160217905550600460003373ffffffffffffffffffffffffffffffffffffffff1673ffffffffffffffffffffffffffffffffffffffff1681526020019081526020016000208190806001815401808255809150509060018203906000526020600020906008020160009091929091909150600082015181600001556020820151816001019080519060200190610ccc929190611ebf565b506040820151816002019080519060200190610ce9929190611ebf565b5060608201518160030160006101000a81548160ff02191690836001811115610d0e57fe5b02179055506080820151816004015560a08201518160050160006101000a81548173ffffffffffffffffffffffffffffffffffffffff021916908373ffffffffffffffffffffffffffffffffffffffff16021790555060c0820151816006015560e0820151816007015550505060068190806001815401808255809150509060018203906000526020600020906008020160009091929091909150600082015181600001556020820151816001019080519060200190610dcf929190611ebf565b506040820151816002019080519060200190610dec929190611ebf565b5060608201518160030160006101000a81548160ff02191690836001811115610e1157fe5b02179055506080820151816004015560a08201518160050160006101000a81548173ffffffffffffffffffffffffffffffffffffffff021916908373ffffffffffffffffffffffffffffffffffffffff16021790555060c0820151816006015560e08201518160070155505050600080815480929190600101919050555050505050565b606080600680549050604051908082528060200260200182016040528015610ed757816020015b610ec4611d74565b815260200190600190039081610ebc5790505b50905060008090505b60068054905081101561110857610ef5611f3f565b6040518060e0016040528060068481548110610f0d57fe5b906000526020600020906008020160000154815260200160068481548110610f3157fe5b90600052602060002090600802016001018054600181600116156101000203166002900480601f016020809104026020016040519081016040528092919081815260200182805460018160011615610100020316600290048015610fd65780601f10610fab57610100808354040283529160200191610fd6565b820191906000526020600020905b815481529060010190602001808311610fb957829003601f168201915b5050505050815260200160068481548110610fed57fe5b906000526020600020906008020160030160009054906101000a900460ff16600181111561101757fe5b81526020016006848154811061102957fe5b90600052602060002090600802016004015481526020016006848154811061104d57fe5b906000526020600020906008020160050160009054906101000a900473ffffffffffffffffffffffffffffffffffffffff1673ffffffffffffffffffffffffffffffffffffffff168152602001600684815481106110a757fe5b9060005260206000209060080201600601548152602001600684815481106110cb57fe5b9060005260206000209060080201600701548152509050808383815181106110ef57fe5b6020026020010181905250508080600101915050610ee0565b508091505090565b6060600460003373ffffffffffffffffffffffffffffffffffffffff1673ffffffffffffffffffffffffffffffffffffffff168152602001908152602001600020805480602002602001604051908101604052809291908181526020016000905b8282101561139357838290600052602060002090600802016040518061010001604052908160008201548152602001600182018054600181600116156101000203166002900480601f0160208091040260200160405190810160405280929190818152602001828054600181600116156101000203166002900480156112385780601f1061120d57610100808354040283529160200191611238565b820191906000526020600020905b81548152906001019060200180831161121b57829003601f168201915b50505050508152602001600282018054600181600116156101000203166002900480601f0160208091040260200160405190810160405280929190818152602001828054600181600116156101000203166002900480156112da5780601f106112af576101008083540402835291602001916112da565b820191906000526020600020905b8154815290600101906020018083116112bd57829003601f168201915b505050505081526020016003820160009054906101000a900460ff16600181111561130157fe5b600181111561130c57fe5b8152602001600482015481526020016005820160009054906101000a900473ffffffffffffffffffffffffffffffffffffffff1673ffffffffffffffffffffffffffffffffffffffff1673ffffffffffffffffffffffffffffffffffffffff1681526020016006820154815260200160078201548152505081526020019060010190611171565b50505050905090565b6113a4611e59565b6000600683815481106113b357fe5b90600052602060002090600802016004015414156115e857600682815481106113d857fe5b90600052602060002090600802016040518061010001604052908160008201548152602001600182018054600181600116156101000203166002900480601f0160208091040260200160405190810160405280929190818152602001828054600181600116156101000203166002900480156114955780601f1061146a57610100808354040283529160200191611495565b820191906000526020600020905b81548152906001019060200180831161147857829003601f168201915b50505050508152602001600282018054600181600116156101000203166002900480601f0160208091040260200160405190810160405280929190818152602001828054600181600116156101000203166002900480156115375780601f1061150c57610100808354040283529160200191611537565b820191906000526020600020905b81548152906001019060200180831161151a57829003601f168201915b505050505081526020016003820160009054906101000a900460ff16600181111561155e57fe5b600181111561156957fe5b8152602001600482015481526020016005820160009054906101000a900473ffffffffffffffffffffffffffffffffffffffff1673ffffffffffffffffffffffffffffffffffffffff1673ffffffffffffffffffffffffffffffffffffffff168152602001600682015481526020016007820154815250509050611911565b600080905060008090505b600360003373ffffffffffffffffffffffffffffffffffffffff1673ffffffffffffffffffffffffffffffffffffffff168152602001908152602001600020805490508110156116b657600360003373ffffffffffffffffffffffffffffffffffffffff1673ffffffffffffffffffffffffffffffffffffffff168152602001908152602001600020818154811061168757fe5b9060005260206000209060080201600001548414156116a957600191506116b6565b80806001019150506115f3565b50806116f7576040517f08c379a00000000000000000000000000000000000000000000000000000000081526004016116ee90612758565b60405180910390fd5b6006838154811061170457fe5b90600052602060002090600802016040518061010001604052908160008201548152602001600182018054600181600116156101000203166002900480601f0160208091040260200160405190810160405280929190818152602001828054600181600116156101000203166002900480156117c15780601f10611796576101008083540402835291602001916117c1565b820191906000526020600020905b8154815290600101906020018083116117a457829003601f168201915b50505050508152602001600282018054600181600116156101000203166002900480601f0160208091040260200160405190810160405280929190818152602001828054600181600116156101000203166002900480156118635780601f1061183857610100808354040283529160200191611863565b820191906000526020600020905b81548152906001019060200180831161184657829003601f168201915b505050505081526020016003820160009054906101000a900460ff16600181111561188a57fe5b600181111561189557fe5b8152602001600482015481526020016005820160009054906101000a900473ffffffffffffffffffffffffffffffffffffffff1673ffffffffffffffffffffffffffffffffffffffff1673ffffffffffffffffffffffffffffffffffffffff168152602001600682015481526020016007820154815250509150505b919050565b60006006828154811061192557fe5b906000526020600020906008020160050160009054906101000a900473ffffffffffffffffffffffffffffffffffffffff1690508073ffffffffffffffffffffffffffffffffffffffff166108fc349081150290604051600060405180830381858888f1935050505015801561199f573d6000803e3d6000fd5b505050565b6060600360003373ffffffffffffffffffffffffffffffffffffffff1673ffffffffffffffffffffffffffffffffffffffff168152602001908152602001600020805480602002602001604051908101604052809291908181526020016000905b82821015611c2757838290600052602060002090600802016040518061010001604052908160008201548152602001600182018054600181600116156101000203166002900480601f016020809104026020016040519081016040528092919081815260200182805460018160011615610100020316600290048015611acc5780601f10611aa157610100808354040283529160200191611acc565b820191906000526020600020905b815481529060010190602001808311611aaf57829003601f168201915b50505050508152602001600282018054600181600116156101000203166002900480601f016020809104026020016040519081016040528092919081815260200182805460018160011615610100020316600290048015611b6e5780601f10611b4357610100808354040283529160200191611b6e565b820191906000526020600020905b815481529060010190602001808311611b5157829003601f168201915b505050505081526020016003820160009054906101000a900460ff166001811115611b9557fe5b6001811115611ba057fe5b8152602001600482015481526020016005820160009054906101000a900473ffffffffffffffffffffffffffffffffffffffff1673ffffffffffffffffffffffffffffffffffffffff1673ffffffffffffffffffffffffffffffffffffffff1681526020016006820154815260200160078201548152505081526020019060010190611a05565b50505050905090565b6060813373ffffffffffffffffffffffffffffffffffffffff166001600083815260200190815260200160002060009054906101000a900473ffffffffffffffffffffffffffffffffffffffff1673ffffffffffffffffffffffffffffffffffffffff1614611cd4576040517f08c379a0000000000000000000000000000000000000000000000000000000008152600401611ccb90612718565b60405180910390fd5b60026000848152602001908152602001600020805480602002602001604051908101604052809291908181526020018280548015611d6757602002820191906000526020600020905b8160009054906101000a900473ffffffffffffffffffffffffffffffffffffffff1673ffffffffffffffffffffffffffffffffffffffff1681526020019060010190808311611d1d575b5050505050915050919050565b6040518060e00160405280600081526020016060815260200160006001811115611d9a57fe5b815260200160008152602001600073ffffffffffffffffffffffffffffffffffffffff16815260200160008152602001600081525090565b828054600181600116156101000203166002900490600052602060002090601f016020900481019282601f10611e0b5780548555611e48565b82800160010185558215611e4857600052602060002091601f016020900482015b82811115611e47578254825591600101919060010190611e2c565b5b509050611e559190611f9d565b5090565b60405180610100016040528060008152602001606081526020016060815260200160006001811115611e8757fe5b815260200160008152602001600073ffffffffffffffffffffffffffffffffffffffff16815260200160008152602001600081525090565b828054600181600116156101000203166002900490600052602060002090601f016020900481019282601f10611f0057805160ff1916838001178555611f2e565b82800160010185558215611f2e579182015b82811115611f2d578251825591602001919060010190611f12565b5b509050611f3b9190611f9d565b5090565b6040518060e00160405280600081526020016060815260200160006001811115611f6557fe5b815260200160008152602001600073ffffffffffffffffffffffffffffffffffffffff16815260200160008152602001600081525090565b611fbf91905b80821115611fbb576000816000905550600101611fa3565b5090565b90565b600082601f830112611fd357600080fd5b8135611fe6611fe182612807565b6127da565b9150808252602083016020830185838301111561200257600080fd5b61200d83828461297e565b50505092915050565b600081359050612025816129de565b92915050565b60008060006060848603121561204057600080fd5b600084013567ffffffffffffffff81111561205a57600080fd5b61206686828701611fc2565b935050602084013567ffffffffffffffff81111561208357600080fd5b61208f86828701611fc2565b92505060406120a086828701612016565b9150509250925092565b6000602082840312156120bc57600080fd5b60006120ca84828501612016565b91505092915050565b60006120df8383612122565b60208301905092915050565b60006120f78383612499565b905092915050565b600061210b83836125ec565b905092915050565b61211c8161291d565b82525050565b61212b8161290b565b82525050565b600061213c82612863565b61214681856128b6565b935061215183612833565b8060005b8381101561218257815161216988826120d3565b97506121748361288f565b925050600181019050612155565b5085935050505092915050565b600061219a8261286e565b6121a481856128c7565b9350836020820285016121b685612843565b8060005b858110156121f257848403895281516121d385826120eb565b94506121de8361289c565b925060208a019950506001810190506121ba565b50829750879550505050505092915050565b600061220f82612879565b61221981856128d8565b93508360208202850161222b85612853565b8060005b85811015612267578484038952815161224885826120ff565b9450612253836128a9565b925060208a0199505060018101905061222f565b50829750879550505050505092915050565b6122828161296c565b82525050565b600061229382612884565b61229d81856128e9565b93506122ad81856020860161298d565b6122b6816129c0565b840191505092915050565b60006122ce6022836128fa565b91507f596f7520617265206e6f7420746865206f776e6572206f66207468697320626c60008301527f6f670000000000000000000000000000000000000000000000000000000000006020830152604082019050919050565b60006123346025836128fa565b91507f596f75206861766520616c7265616479207061696420666f722074686973206260008301527f6c6f6720210000000000000000000000000000000000000000000000000000006020830152604082019050919050565b600061239a6023836128fa565b91507f596f752068617665206e6f74207061696420666f72207468697320626c6f672060008301527f21212100000000000000000000000000000000000000000000000000000000006020830152604082019050919050565b6000612400600f836128fa565b91507f496e76616c696420626c6f6720494400000000000000000000000000000000006000830152602082019050919050565b6000612440602b836128fa565b91507f53656e7420616d6f756e742073686f756c6420626520657175616c20746f206260008301527f6c6f6720707269636520210000000000000000000000000000000000000000006020830152604082019050919050565b600060e0830160008301516124b160008601826126a3565b50602083015184820360208601526124c98282612288565b91505060408301516124de6040860182612279565b5060608301516124f160608601826126a3565b5060808301516125046080860182612122565b5060a083015161251760a08601826126a3565b5060c083015161252a60c08601826126a3565b508091505092915050565b60006101008301600083015161254e60008601826126a3565b50602083015184820360208601526125668282612288565b915050604083015184820360408601526125808282612288565b91505060608301516125956060860182612279565b5060808301516125a860808601826126a3565b5060a08301516125bb60a0860182612113565b5060c08301516125ce60c08601826126a3565b5060e08301516125e160e08601826126a3565b508091505092915050565b60006101008301600083015161260560008601826126a3565b506020830151848203602086015261261d8282612288565b915050604083015184820360408601526126378282612288565b915050606083015161264c6060860182612279565b50608083015161265f60808601826126a3565b5060a083015161267260a0860182612113565b5060c083015161268560c08601826126a3565b5060e083015161269860e08601826126a3565b508091505092915050565b6126ac81612962565b82525050565b600060208201905081810360008301526126cc8184612131565b905092915050565b600060208201905081810360008301526126ee818461218f565b905092915050565b600060208201905081810360008301526127108184612204565b905092915050565b60006020820190508181036000830152612731816122c1565b9050919050565b6000602082019050818103600083015261275181612327565b9050919050565b600060208201905081810360008301526127718161238d565b9050919050565b60006020820190508181036000830152612791816123f3565b9050919050565b600060208201905081810360008301526127b181612433565b9050919050565b600060208201905081810360008301526127d28184612535565b905092915050565b6000604051905081810181811067ffffffffffffffff821117156127fd57600080fd5b8060405250919050565b600067ffffffffffffffff82111561281e57600080fd5b601f19601f8301169050602081019050919050565b6000819050602082019050919050565b6000819050602082019050919050565b6000819050602082019050919050565b600081519050919050565b600081519050919050565b600081519050919050565b600081519050919050565b6000602082019050919050565b6000602082019050919050565b6000602082019050919050565b600082825260208201905092915050565b600082825260208201905092915050565b600082825260208201905092915050565b600082825260208201905092915050565b600082825260208201905092915050565b600061291682612942565b9050919050565b600061292882612942565b9050919050565b600081905061293d826129d1565b919050565b600073ffffffffffffffffffffffffffffffffffffffff82169050919050565b6000819050919050565b60006129778261292f565b9050919050565b82818337600083830152505050565b60005b838110156129ab578082015181840152602081019050612990565b838111156129ba576000848401525b50505050565b6000601f19601f8301169050919050565b600281106129db57fe5b50565b6129e781612962565b81146129f257600080fd5b5056fea365627a7a72315820af3d6c902112ea15faf72192ffef820a6636f2f3312b2d2d6cca97190585d60c6c6578706572696d656e74616cf564736f6c63430005100040",
  "source": "// SPDX-License-Identifier: MIT\npragma experimental ABIEncoderV2;\npragma solidity >=0.4.22 <0.9.0;\n// count, like, donate\ncontract SmartBlogs {\n\n\tenum BlogType {PAID, UNPAID}\n\n\tstruct Blog {\n\t\tuint blogId;\n\t\tstring blogTitle;\n\t\tstring blogContent;\n\t\tBlogType paid;\n\t\tuint value;\n\t\taddress payable ownerId;\n\t\tuint purchasedBy;\n\t\tuint likes;\n\t}\n\n\tstruct BlogTitle {\n\t\tuint blogId;\n\t\tstring blogTitle;\n\t\tBlogType paid;\n\t\tuint value;\n\t\taddress ownerId;\n\t\tuint purchasedBy;\n\t\tuint likes;\n\t}\n\n\n\tuint blogCounter = 0;\n\t// @dev address of the person who is the owner of a blog\n\tmapping(uint => address) owners;\n\t// @dev addresses of the viewers who have viewed a particular blog\n\tmapping(uint => address[]) viewers;\n\t// @dev list of blogs which each person has viewed - paid or unpaid\n\tmapping(address => Blog[]) myPaidBlogs;\n\t// @dev list of blogs which each person has added\n\tmapping(address => Blog[]) myOwnedBlogs;\n\t// @dev addresses of all people who have liked a particular blog\n\tmapping(uint => address[]) likes;\n\n\t// @dev list of all the blogs posted\n\tBlog[] private blogs;\n\n\tmodifier onlyOwner(uint blogId) {\n\t\trequire(\n\t\t\towners[blogId] == msg.sender,\n\t\t\t\"You are not the owner of this blog\"\n\t\t);\n\t\t_;\n\t}\n\n\tmodifier validBlogId(uint blogId) {\n\t\trequire(\n\t\t\tblogId >= 0 && blogId < blogs.length,\n\t\t\t\"Invalid blog ID\"\n\t\t);\n\t\t_;\n\t}\n\n\t/**\n     * @notice adds a new blog\n     * @param blogTitle title of the new blog\n     * @param blogContent content of the blog \n     * @param value asking price of the blog\n     */\n\tfunction addBlog(string memory blogTitle, string memory blogContent, uint value) public {\n\t\tBlog memory blog = Blog(blogCounter, blogTitle, blogContent, value == 0 ? BlogType.UNPAID : BlogType.PAID, value, msg.sender, 0, 0);\n\t\towners[blogCounter] = msg.sender;\n\t\tmyOwnedBlogs[msg.sender].push(blog);\n\t\tblogs.push(blog);\n\t\tblogCounter++;\n\t}\n\n\t/**\n     * @notice lists all the blogs\n     */\n\tfunction listBlogs() public view returns (BlogTitle[] memory) {\n\t\tBlogTitle[] memory blogsWithOnlyTitles = new BlogTitle[](blogs.length);\n\t\tfor(uint i = 0; i < blogs.length; i++) {\n\t\t\tBlogTitle memory blogWithOnlyTitle = BlogTitle(blogs[i].blogId, blogs[i].blogTitle, blogs[i].paid, blogs[i].value, blogs[i].ownerId, blogs[i].purchasedBy, blogs[i].likes);\n\t\t\tblogsWithOnlyTitles[i] = blogWithOnlyTitle;\n\t\t}\n\t\treturn blogsWithOnlyTitles;\n\t}\n\n\t/**\n     * @notice lists all the free blogs\n     */\n\tfunction listFreeBlogs() public view returns (BlogTitle[] memory) {\n\t\tuint numFreeBlogs = 0;\n\t\tfor(uint i = 0; i < blogs.length; i++) {\n\t\t\tif(blogs[i].value != 0) {\n\t\t\t\tnumFreeBlogs++;\n\t\t\t}\n\t\t}\n\t\tBlogTitle[] memory blogsWithOnlyTitles = new BlogTitle[](numFreeBlogs);\n\t\tuint index = 0;\n\t\tfor(uint i = 0; i < blogs.length; i++) {\n\t\t\tif(blogs[i].value == 0) {\n\t\t\t\tblogsWithOnlyTitles[index++] = BlogTitle(blogs[i].blogId, blogs[i].blogTitle, blogs[i].paid, blogs[i].value, blogs[i].ownerId, blogs[i].purchasedBy, blogs[i].likes);\n\t\t\t}\n\t\t}\n\t\treturn blogsWithOnlyTitles;\n\t}\n\n\t/**\n     * @notice pays the blog creator the asking price\n     * @param blogId id of the blog for which the price is being paid\n     */\n\tfunction payForBlog(uint blogId) public payable {\n\t\tbool flag = false;\n\t\tfor(uint i = 0; i < myPaidBlogs[msg.sender].length; i++) {\n\t\t\tif(blogId == myPaidBlogs[msg.sender][i].blogId) {\n\t\t\t\tflag = true;\n\t\t\t\tbreak;\n\t\t\t}\n\t\t}\n\t\trequire(\n\t\t\tflag == false,\n\t\t\t\"You have already paid for this blog !\"\n\t\t);\n\n\t\trequire(\n\t\t\tmsg.value == blogs[blogId].value,\n\t\t\t\"Sent amount should be equal to blog price !\"\n\t\t);\n\t\t\n\t\tviewers[blogId].push(msg.sender);\n\t\tblogs[blogId].purchasedBy = viewers[blogId].length;\n\t\tmyPaidBlogs[msg.sender].push(blogs[blogId]);\n\n\t\taddress payable ownerAddress = blogs[blogId].ownerId;\n\t\townerAddress.transfer(blogs[blogId].value);\n\t}\n\n\n\t/**\n     * @notice view a particular blog\n     * @param blogId id of the blog\n     */\n\tfunction viewBlog(uint blogId) public view returns (Blog memory) {\n\t\tif(blogs[blogId].value == 0) {\n\t\t\treturn blogs[blogId];\n\t\t}\n\n\t\tbool flag = false;\n\t\tfor(uint i = 0; i < myPaidBlogs[msg.sender].length; i++) {\n\t\t\tif(blogId == myPaidBlogs[msg.sender][i].blogId) {\n\t\t\t\tflag = true;\n\t\t\t\tbreak;\n\t\t\t}\n\t\t}\n\t\trequire(\n\t\t\tflag, \"You have not paid for this blog !!!\"\n\t\t);\n\n\t\treturn blogs[blogId];\n\t}\n\n\t/**\n     * @notice get all the blogs you have bought\n     */\n\tfunction getBlogsPaidFor() public view returns (Blog[] memory) {\n\t\treturn myPaidBlogs[msg.sender];\n\t}\n\n\t/**\n     * @notice get blogs created by you\n     */\n\tfunction getOwnedBlogs() public view returns (Blog[] memory) {\n\t\treturn myOwnedBlogs[msg.sender];\n\t}\n\n\t/**\n     * @notice get the addreseses of people who have purchased a particular blog\n     * @param blogId id of the blog\n     */\n\tfunction getBlogViewers(uint blogId) public view onlyOwner(blogId) returns(address[] memory) {\n\t\treturn viewers[blogId];\n\t}\n\n\t/**\n     * @notice donates money to the creator of particular blog\n     * @param blogId id of the blog\n     */\n\tfunction donate(uint blogId) public payable {\n\t\taddress payable ownerAddress = blogs[blogId].ownerId;\n\t\townerAddress.transfer(msg.value);\n\t}\n\n\t/**\n     * @notice like a particular blog\n     * @param blogId id of the blog\n     */\n\tfunction likeBlog(uint blogId) public validBlogId(blogId) {\n\t\tbool alreadyLiked = false;\n\t\tfor(uint i = 0; i < likes[blogId].length; i++) {\n\t\t\tif(likes[blogId][i] == msg.sender) {\n\t\t\t\talreadyLiked = true;\n\t\t\t}\n\t\t}\n\t\tif(alreadyLiked) return;\n\t\tlikes[blogId].push(msg.sender);\n\t\tblogs[blogId].likes += 1;\n\t}\n\tconstructor() public {\n\t\t\n\t}\n}\n",
  "sourcePath": "/home/vasu0403/college/sem7/Blockchain/SmartBlogs/contracts/SmartBlogs.sol",
  "compiler": {
    "name": "solc",
    "version": "0.5.16+commit.9c3226ce.Emscripten.clang"
  },
  "schemaVersion": "3.4.3",
  "updatedAt": "2021-12-04T16:54:54.990Z",
  "networkType": "ethereum",
  "devdoc": {
    "methods": {
      "addBlog(string,string,uint256)": {
        "params": {
          "blogContent": "content of the blog ",
          "blogTitle": "title of the new blog",
          "value": "asking price of the blog"
        }
      },
      "donate(uint256)": {
        "params": {
          "blogId": "id of the blog"
        }
      },
      "getBlogViewers(uint256)": {
        "params": {
          "blogId": "id of the blog"
        }
      },
      "likeBlog(uint256)": {
        "params": {
          "blogId": "id of the blog"
        }
      },
      "payForBlog(uint256)": {
        "params": {
          "blogId": "id of the blog for which the price is being paid"
        }
      },
      "viewBlog(uint256)": {
        "params": {
          "blogId": "id of the blog"
        }
      }
    }
  },
  "userdoc": {
    "methods": {
      "addBlog(string,string,uint256)": {
        "notice": "adds a new blog"
      },
      "donate(uint256)": {
        "notice": "donates money to the creator of particular blog"
      },
      "getBlogViewers(uint256)": {
        "notice": "get the addreseses of people who have purchased a particular blog"
      },
      "getBlogsPaidFor()": {
        "notice": "get all the blogs you have bought"
      },
      "getOwnedBlogs()": {
        "notice": "get blogs created by you"
      },
      "likeBlog(uint256)": {
        "notice": "like a particular blog"
      },
      "listBlogs()": {
        "notice": "lists all the blogs"
      },
      "listFreeBlogs()": {
        "notice": "lists all the free blogs"
      },
      "payForBlog(uint256)": {
        "notice": "pays the blog creator the asking price"
      },
      "viewBlog(uint256)": {
        "notice": "view a particular blog"
      }
    }
  }
}