{
  "contractName": "SmartBlogs",
  "abi": [
    {
      "inputs": [],
      "payable": false,
      "stateMutability": "nonpayable",
      "type": "constructor"
    },
    {
      "constant": false,
      "inputs": [
        {
          "internalType": "string",
          "name": "blogTitle",
          "type": "string"
        },
        {
          "internalType": "string",
          "name": "blogContent",
          "type": "string"
        },
        {
          "internalType": "uint256",
          "name": "value",
          "type": "uint256"
        }
      ],
      "name": "addBlog",
      "outputs": [],
      "payable": false,
      "stateMutability": "nonpayable",
      "type": "function"
    },
    {
      "constant": true,
      "inputs": [],
      "name": "listBlogs",
      "outputs": [
        {
          "components": [
            {
              "internalType": "uint256",
              "name": "blogId",
              "type": "uint256"
            },
            {
              "internalType": "string",
              "name": "blogTitle",
              "type": "string"
            },
            {
              "internalType": "enum SmartBlogs.BlogType",
              "name": "paid",
              "type": "uint8"
            },
            {
              "internalType": "uint256",
              "name": "value",
              "type": "uint256"
            },
            {
              "internalType": "address",
              "name": "ownerId",
              "type": "address"
            }
          ],
          "internalType": "struct SmartBlogs.BlogTitle[]",
          "name": "",
          "type": "tuple[]"
        }
      ],
      "payable": false,
      "stateMutability": "view",
      "type": "function"
    },
    {
      "constant": true,
      "inputs": [],
      "name": "listFreeBlogs",
      "outputs": [
        {
          "components": [
            {
              "internalType": "uint256",
              "name": "blogId",
              "type": "uint256"
            },
            {
              "internalType": "string",
              "name": "blogTitle",
              "type": "string"
            },
            {
              "internalType": "enum SmartBlogs.BlogType",
              "name": "paid",
              "type": "uint8"
            },
            {
              "internalType": "uint256",
              "name": "value",
              "type": "uint256"
            },
            {
              "internalType": "address",
              "name": "ownerId",
              "type": "address"
            }
          ],
          "internalType": "struct SmartBlogs.BlogTitle[]",
          "name": "",
          "type": "tuple[]"
        }
      ],
      "payable": false,
      "stateMutability": "view",
      "type": "function"
    },
    {
      "constant": false,
      "inputs": [
        {
          "internalType": "uint256",
          "name": "blogId",
          "type": "uint256"
        }
      ],
      "name": "payForBlog",
      "outputs": [],
      "payable": true,
      "stateMutability": "payable",
      "type": "function"
    },
    {
      "constant": true,
      "inputs": [
        {
          "internalType": "uint256",
          "name": "blogId",
          "type": "uint256"
        }
      ],
      "name": "viewBlog",
      "outputs": [
        {
          "components": [
            {
              "internalType": "uint256",
              "name": "blogId",
              "type": "uint256"
            },
            {
              "internalType": "string",
              "name": "blogTitle",
              "type": "string"
            },
            {
              "internalType": "string",
              "name": "blogContent",
              "type": "string"
            },
            {
              "internalType": "enum SmartBlogs.BlogType",
              "name": "paid",
              "type": "uint8"
            },
            {
              "internalType": "uint256",
              "name": "value",
              "type": "uint256"
            },
            {
              "internalType": "address payable",
              "name": "ownerId",
              "type": "address"
            }
          ],
          "internalType": "struct SmartBlogs.Blog",
          "name": "",
          "type": "tuple"
        }
      ],
      "payable": false,
      "stateMutability": "view",
      "type": "function"
    },
    {
      "constant": true,
      "inputs": [],
      "name": "getBlogsPaidFor",
      "outputs": [
        {
          "components": [
            {
              "internalType": "uint256",
              "name": "blogId",
              "type": "uint256"
            },
            {
              "internalType": "string",
              "name": "blogTitle",
              "type": "string"
            },
            {
              "internalType": "string",
              "name": "blogContent",
              "type": "string"
            },
            {
              "internalType": "enum SmartBlogs.BlogType",
              "name": "paid",
              "type": "uint8"
            },
            {
              "internalType": "uint256",
              "name": "value",
              "type": "uint256"
            },
            {
              "internalType": "address payable",
              "name": "ownerId",
              "type": "address"
            }
          ],
          "internalType": "struct SmartBlogs.Blog[]",
          "name": "",
          "type": "tuple[]"
        }
      ],
      "payable": false,
      "stateMutability": "view",
      "type": "function"
    },
    {
      "constant": true,
      "inputs": [],
      "name": "getOwnedBlogs",
      "outputs": [
        {
          "components": [
            {
              "internalType": "uint256",
              "name": "blogId",
              "type": "uint256"
            },
            {
              "internalType": "string",
              "name": "blogTitle",
              "type": "string"
            },
            {
              "internalType": "string",
              "name": "blogContent",
              "type": "string"
            },
            {
              "internalType": "enum SmartBlogs.BlogType",
              "name": "paid",
              "type": "uint8"
            },
            {
              "internalType": "uint256",
              "name": "value",
              "type": "uint256"
            },
            {
              "internalType": "address payable",
              "name": "ownerId",
              "type": "address"
            }
          ],
          "internalType": "struct SmartBlogs.Blog[]",
          "name": "",
          "type": "tuple[]"
        }
      ],
      "payable": false,
      "stateMutability": "view",
      "type": "function"
    },
    {
      "constant": true,
      "inputs": [
        {
          "internalType": "uint256",
          "name": "blogId",
          "type": "uint256"
        }
      ],
      "name": "getBlogViewers",
      "outputs": [
        {
          "internalType": "address[]",
          "name": "",
          "type": "address[]"
        }
      ],
      "payable": false,
      "stateMutability": "view",
      "type": "function"
    }
  ],
  "bytecode": "0x60806040526000805534801561001457600080fd5b50612525806100246000396000f3fe60806040526004361061007b5760003560e01c8063c6fdb4211161004e578063c6fdb4211461011b578063c7fe017e14610146578063fba4c1f814610183578063fc99d905146101ae5761007b565b80631ee4840f146100805780632bb4fb4f146100ab57806375f6bc42146100c7578063a3dff135146100f0575b600080fd5b34801561008c57600080fd5b506100956101eb565b6040516100a291906121e1565b60405180910390f35b6100c560048036036100c09190810190611c6b565b610498565b005b3480156100d357600080fd5b506100ee60048036036100e99190810190611bec565b6108bb565b005b3480156100fc57600080fd5b50610105610bab565b60405161011291906121e1565b60405180910390f35b34801561012757600080fd5b50610130610dde565b60405161013d9190612203565b60405180910390f35b34801561015257600080fd5b5061016d60048036036101689190810190611c6b565b611055565b60405161017a91906122a5565b60405180910390f35b34801561018f57600080fd5b506101986115a5565b6040516101a59190612203565b60405180910390f35b3480156101ba57600080fd5b506101d560048036036101d09190810190611c6b565b61181c565b6040516101e291906121bf565b60405180910390f35b6060600080905060008090505b6005805490508110156102415760006005828154811061021457fe5b906000526020600020906006020160040154146102345781806001019250505b80806001019150506101f8565b5060608160405190808252806020026020018201604052801561027e57816020015b61026b611960565b8152602001906001900390816102635790505b509050600080905060008090505b60058054905081101561048e576000600582815481106102a857fe5b9060005260206000209060060201600401541415610481576040518060a00160405280600583815481106102d857fe5b9060005260206000209060060201600001548152602001600583815481106102fc57fe5b90600052602060002090600602016001018054600181600116156101000203166002900480601f0160208091040260200160405190810160405280929190818152602001828054600181600116156101000203166002900480156103a15780601f10610376576101008083540402835291602001916103a1565b820191906000526020600020905b81548152906001019060200180831161038457829003601f168201915b50505050508152602001600583815481106103b857fe5b906000526020600020906006020160030160009054906101000a900460ff1660018111156103e257fe5b8152602001600583815481106103f457fe5b90600052602060002090600602016004015481526020016005838154811061041857fe5b906000526020600020906006020160050160009054906101000a900473ffffffffffffffffffffffffffffffffffffffff1673ffffffffffffffffffffffffffffffffffffffff1681525083838060010194508151811061047557fe5b60200260200101819052505b808060010191505061028c565b5081935050505090565b600080905060008090505b600360003373ffffffffffffffffffffffffffffffffffffffff1673ffffffffffffffffffffffffffffffffffffffff1681526020019081526020016000208054905081101561056657600360003373ffffffffffffffffffffffffffffffffffffffff1673ffffffffffffffffffffffffffffffffffffffff168152602001908152602001600020818154811061053757fe5b9060005260206000209060060201600001548314156105595760019150610566565b80806001019150506104a3565b5060001515811515146105ae576040517f08c379a00000000000000000000000000000000000000000000000000000000081526004016105a590612245565b60405180910390fd5b600582815481106105bb57fe5b906000526020600020906006020160040154341461060e576040517f08c379a000000000000000000000000000000000000000000000000000000000815260040161060590612285565b60405180910390fd5b600260008381526020019081526020016000203390806001815401808255809150509060018203906000526020600020016000909192909190916101000a81548173ffffffffffffffffffffffffffffffffffffffff021916908373ffffffffffffffffffffffffffffffffffffffff16021790555050600360003373ffffffffffffffffffffffffffffffffffffffff1673ffffffffffffffffffffffffffffffffffffffff168152602001908152602001600020600583815481106106d157fe5b906000526020600020906006020190806001815401808255809150509060018203906000526020600020906006020160009091929091909150600082015481600001556001820181600101908054600181600116156101000203166002900461073b9291906119b0565b50600282018160020190805460018160011615610100020316600290046107639291906119b0565b506003820160009054906101000a900460ff168160030160006101000a81548160ff0219169083600181111561079557fe5b0217905550600482015481600401556005820160009054906101000a900473ffffffffffffffffffffffffffffffffffffffff168160050160006101000a81548173ffffffffffffffffffffffffffffffffffffffff021916908373ffffffffffffffffffffffffffffffffffffffff16021790555050505060006005838154811061081d57fe5b906000526020600020906006020160050160009054906101000a900473ffffffffffffffffffffffffffffffffffffffff1690508073ffffffffffffffffffffffffffffffffffffffff166108fc6005858154811061087857fe5b9060005260206000209060060201600401549081150290604051600060405180830381858888f193505050501580156108b5573d6000803e3d6000fd5b50505050565b6108c3611a37565b6040518060c001604052806000548152602001858152602001848152602001600084146108f15760006108f4565b60015b60018111156108ff57fe5b81526020018381526020013373ffffffffffffffffffffffffffffffffffffffff16815250905033600160008054815260200190815260200160002060006101000a81548173ffffffffffffffffffffffffffffffffffffffff021916908373ffffffffffffffffffffffffffffffffffffffff160217905550600460003373ffffffffffffffffffffffffffffffffffffffff1673ffffffffffffffffffffffffffffffffffffffff1681526020019081526020016000208190806001815401808255809150509060018203906000526020600020906006020160009091929091909150600082015181600001556020820151816001019080519060200190610a0a929190611a8e565b506040820151816002019080519060200190610a27929190611a8e565b5060608201518160030160006101000a81548160ff02191690836001811115610a4c57fe5b02179055506080820151816004015560a08201518160050160006101000a81548173ffffffffffffffffffffffffffffffffffffffff021916908373ffffffffffffffffffffffffffffffffffffffff16021790555050505060058190806001815401808255809150509060018203906000526020600020906006020160009091929091909150600082015181600001556020820151816001019080519060200190610af9929190611a8e565b506040820151816002019080519060200190610b16929190611a8e565b5060608201518160030160006101000a81548160ff02191690836001811115610b3b57fe5b02179055506080820151816004015560a08201518160050160006101000a81548173ffffffffffffffffffffffffffffffffffffffff021916908373ffffffffffffffffffffffffffffffffffffffff160217905550505050600080815480929190600101919050555050505050565b606080600580549050604051908082528060200260200182016040528015610bed57816020015b610bda611960565b815260200190600190039081610bd25790505b50905060008090505b600580549050811015610dd657610c0b611b0e565b6040518060a0016040528060058481548110610c2357fe5b906000526020600020906006020160000154815260200160058481548110610c4757fe5b90600052602060002090600602016001018054600181600116156101000203166002900480601f016020809104026020016040519081016040528092919081815260200182805460018160011615610100020316600290048015610cec5780601f10610cc157610100808354040283529160200191610cec565b820191906000526020600020905b815481529060010190602001808311610ccf57829003601f168201915b5050505050815260200160058481548110610d0357fe5b906000526020600020906006020160030160009054906101000a900460ff166001811115610d2d57fe5b815260200160058481548110610d3f57fe5b906000526020600020906006020160040154815260200160058481548110610d6357fe5b906000526020600020906006020160050160009054906101000a900473ffffffffffffffffffffffffffffffffffffffff1673ffffffffffffffffffffffffffffffffffffffff16815250905080838381518110610dbd57fe5b6020026020010181905250508080600101915050610bf6565b508091505090565b6060600460003373ffffffffffffffffffffffffffffffffffffffff1673ffffffffffffffffffffffffffffffffffffffff168152602001908152602001600020805480602002602001604051908101604052809291908181526020016000905b8282101561104c57838290600052602060002090600602016040518060c001604052908160008201548152602001600182018054600181600116156101000203166002900480601f016020809104026020016040519081016040528092919081815260200182805460018160011615610100020316600290048015610f055780601f10610eda57610100808354040283529160200191610f05565b820191906000526020600020905b815481529060010190602001808311610ee857829003601f168201915b50505050508152602001600282018054600181600116156101000203166002900480601f016020809104026020016040519081016040528092919081815260200182805460018160011615610100020316600290048015610fa75780601f10610f7c57610100808354040283529160200191610fa7565b820191906000526020600020905b815481529060010190602001808311610f8a57829003601f168201915b505050505081526020016003820160009054906101000a900460ff166001811115610fce57fe5b6001811115610fd957fe5b8152602001600482015481526020016005820160009054906101000a900473ffffffffffffffffffffffffffffffffffffffff1673ffffffffffffffffffffffffffffffffffffffff1673ffffffffffffffffffffffffffffffffffffffff168152505081526020019060010190610e3f565b50505050905090565b61105d611a37565b60006005838154811061106c57fe5b906000526020600020906006020160040154141561128c576005828154811061109157fe5b90600052602060002090600602016040518060c001604052908160008201548152602001600182018054600181600116156101000203166002900480601f01602080910402602001604051908101604052809291908181526020018280546001816001161561010002031660029004801561114d5780601f106111225761010080835404028352916020019161114d565b820191906000526020600020905b81548152906001019060200180831161113057829003601f168201915b50505050508152602001600282018054600181600116156101000203166002900480601f0160208091040260200160405190810160405280929190818152602001828054600181600116156101000203166002900480156111ef5780601f106111c4576101008083540402835291602001916111ef565b820191906000526020600020905b8154815290600101906020018083116111d257829003601f168201915b505050505081526020016003820160009054906101000a900460ff16600181111561121657fe5b600181111561122157fe5b8152602001600482015481526020016005820160009054906101000a900473ffffffffffffffffffffffffffffffffffffffff1673ffffffffffffffffffffffffffffffffffffffff1673ffffffffffffffffffffffffffffffffffffffff168152505090506115a0565b600080905060008090505b600360003373ffffffffffffffffffffffffffffffffffffffff1673ffffffffffffffffffffffffffffffffffffffff1681526020019081526020016000208054905081101561135a57600360003373ffffffffffffffffffffffffffffffffffffffff1673ffffffffffffffffffffffffffffffffffffffff168152602001908152602001600020818154811061132b57fe5b90600052602060002090600602016000015484141561134d576001915061135a565b8080600101915050611297565b508061139b576040517f08c379a000000000000000000000000000000000000000000000000000000000815260040161139290612265565b60405180910390fd5b600583815481106113a857fe5b90600052602060002090600602016040518060c001604052908160008201548152602001600182018054600181600116156101000203166002900480601f0160208091040260200160405190810160405280929190818152602001828054600181600116156101000203166002900480156114645780601f1061143957610100808354040283529160200191611464565b820191906000526020600020905b81548152906001019060200180831161144757829003601f168201915b50505050508152602001600282018054600181600116156101000203166002900480601f0160208091040260200160405190810160405280929190818152602001828054600181600116156101000203166002900480156115065780601f106114db57610100808354040283529160200191611506565b820191906000526020600020905b8154815290600101906020018083116114e957829003601f168201915b505050505081526020016003820160009054906101000a900460ff16600181111561152d57fe5b600181111561153857fe5b8152602001600482015481526020016005820160009054906101000a900473ffffffffffffffffffffffffffffffffffffffff1673ffffffffffffffffffffffffffffffffffffffff1673ffffffffffffffffffffffffffffffffffffffff16815250509150505b919050565b6060600360003373ffffffffffffffffffffffffffffffffffffffff1673ffffffffffffffffffffffffffffffffffffffff168152602001908152602001600020805480602002602001604051908101604052809291908181526020016000905b8282101561181357838290600052602060002090600602016040518060c001604052908160008201548152602001600182018054600181600116156101000203166002900480601f0160208091040260200160405190810160405280929190818152602001828054600181600116156101000203166002900480156116cc5780601f106116a1576101008083540402835291602001916116cc565b820191906000526020600020905b8154815290600101906020018083116116af57829003601f168201915b50505050508152602001600282018054600181600116156101000203166002900480601f01602080910402602001604051908101604052809291908181526020018280546001816001161561010002031660029004801561176e5780601f106117435761010080835404028352916020019161176e565b820191906000526020600020905b81548152906001019060200180831161175157829003601f168201915b505050505081526020016003820160009054906101000a900460ff16600181111561179557fe5b60018111156117a057fe5b8152602001600482015481526020016005820160009054906101000a900473ffffffffffffffffffffffffffffffffffffffff1673ffffffffffffffffffffffffffffffffffffffff1673ffffffffffffffffffffffffffffffffffffffff168152505081526020019060010190611606565b50505050905090565b6060813373ffffffffffffffffffffffffffffffffffffffff166001600083815260200190815260200160002060009054906101000a900473ffffffffffffffffffffffffffffffffffffffff1673ffffffffffffffffffffffffffffffffffffffff16146118c0576040517f08c379a00000000000000000000000000000000000000000000000000000000081526004016118b790612225565b60405180910390fd5b6002600084815260200190815260200160002080548060200260200160405190810160405280929190818152602001828054801561195357602002820191906000526020600020905b8160009054906101000a900473ffffffffffffffffffffffffffffffffffffffff1673ffffffffffffffffffffffffffffffffffffffff1681526020019060010190808311611909575b5050505050915050919050565b6040518060a0016040528060008152602001606081526020016000600181111561198657fe5b815260200160008152602001600073ffffffffffffffffffffffffffffffffffffffff1681525090565b828054600181600116156101000203166002900490600052602060002090601f016020900481019282601f106119e95780548555611a26565b82800160010185558215611a2657600052602060002091601f016020900482015b82811115611a25578254825591600101919060010190611a0a565b5b509050611a339190611b5e565b5090565b6040518060c0016040528060008152602001606081526020016060815260200160006001811115611a6457fe5b815260200160008152602001600073ffffffffffffffffffffffffffffffffffffffff1681525090565b828054600181600116156101000203166002900490600052602060002090601f016020900481019282601f10611acf57805160ff1916838001178555611afd565b82800160010185558215611afd579182015b82811115611afc578251825591602001919060010190611ae1565b5b509050611b0a9190611b5e565b5090565b6040518060a00160405280600081526020016060815260200160006001811115611b3457fe5b815260200160008152602001600073ffffffffffffffffffffffffffffffffffffffff1681525090565b611b8091905b80821115611b7c576000816000905550600101611b64565b5090565b90565b600082601f830112611b9457600080fd5b8135611ba7611ba2826122f4565b6122c7565b91508082526020830160208301858383011115611bc357600080fd5b611bce83828461246b565b50505092915050565b600081359050611be6816124cb565b92915050565b600080600060608486031215611c0157600080fd5b600084013567ffffffffffffffff811115611c1b57600080fd5b611c2786828701611b83565b935050602084013567ffffffffffffffff811115611c4457600080fd5b611c5086828701611b83565b9250506040611c6186828701611bd7565b9150509250925092565b600060208284031215611c7d57600080fd5b6000611c8b84828501611bd7565b91505092915050565b6000611ca08383611ce3565b60208301905092915050565b6000611cb8838361201a565b905092915050565b6000611ccc8383612120565b905092915050565b611cdd8161240a565b82525050565b611cec816123f8565b82525050565b6000611cfd82612350565b611d0781856123a3565b9350611d1283612320565b8060005b83811015611d43578151611d2a8882611c94565b9750611d358361237c565b925050600181019050611d16565b5085935050505092915050565b6000611d5b8261235b565b611d6581856123b4565b935083602082028501611d7785612330565b8060005b85811015611db35784840389528151611d948582611cac565b9450611d9f83612389565b925060208a01995050600181019050611d7b565b50829750879550505050505092915050565b6000611dd082612366565b611dda81856123c5565b935083602082028501611dec85612340565b8060005b85811015611e285784840389528151611e098582611cc0565b9450611e1483612396565b925060208a01995050600181019050611df0565b50829750879550505050505092915050565b611e4381612459565b82525050565b6000611e5482612371565b611e5e81856123d6565b9350611e6e81856020860161247a565b611e77816124ad565b840191505092915050565b6000611e8f6022836123e7565b91507f596f7520617265206e6f7420746865206f776e6572206f66207468697320626c60008301527f6f670000000000000000000000000000000000000000000000000000000000006020830152604082019050919050565b6000611ef56025836123e7565b91507f596f75206861766520616c7265616479207061696420666f722074686973206260008301527f6c6f6720210000000000000000000000000000000000000000000000000000006020830152604082019050919050565b6000611f5b6023836123e7565b91507f596f752068617665206e6f74207061696420666f72207468697320626c6f672060008301527f21212100000000000000000000000000000000000000000000000000000000006020830152604082019050919050565b6000611fc1602b836123e7565b91507f53656e7420616d6f756e742073686f756c6420626520657175616c20746f206260008301527f6c6f6720707269636520210000000000000000000000000000000000000000006020830152604082019050919050565b600060a08301600083015161203260008601826121b0565b506020830151848203602086015261204a8282611e49565b915050604083015161205f6040860182611e3a565b50606083015161207260608601826121b0565b5060808301516120856080860182611ce3565b508091505092915050565b600060c0830160008301516120a860008601826121b0565b50602083015184820360208601526120c08282611e49565b915050604083015184820360408601526120da8282611e49565b91505060608301516120ef6060860182611e3a565b50608083015161210260808601826121b0565b5060a083015161211560a0860182611cd4565b508091505092915050565b600060c08301600083015161213860008601826121b0565b50602083015184820360208601526121508282611e49565b9150506040830151848203604086015261216a8282611e49565b915050606083015161217f6060860182611e3a565b50608083015161219260808601826121b0565b5060a08301516121a560a0860182611cd4565b508091505092915050565b6121b98161244f565b82525050565b600060208201905081810360008301526121d98184611cf2565b905092915050565b600060208201905081810360008301526121fb8184611d50565b905092915050565b6000602082019050818103600083015261221d8184611dc5565b905092915050565b6000602082019050818103600083015261223e81611e82565b9050919050565b6000602082019050818103600083015261225e81611ee8565b9050919050565b6000602082019050818103600083015261227e81611f4e565b9050919050565b6000602082019050818103600083015261229e81611fb4565b9050919050565b600060208201905081810360008301526122bf8184612090565b905092915050565b6000604051905081810181811067ffffffffffffffff821117156122ea57600080fd5b8060405250919050565b600067ffffffffffffffff82111561230b57600080fd5b601f19601f8301169050602081019050919050565b6000819050602082019050919050565b6000819050602082019050919050565b6000819050602082019050919050565b600081519050919050565b600081519050919050565b600081519050919050565b600081519050919050565b6000602082019050919050565b6000602082019050919050565b6000602082019050919050565b600082825260208201905092915050565b600082825260208201905092915050565b600082825260208201905092915050565b600082825260208201905092915050565b600082825260208201905092915050565b60006124038261242f565b9050919050565b60006124158261242f565b9050919050565b600081905061242a826124be565b919050565b600073ffffffffffffffffffffffffffffffffffffffff82169050919050565b6000819050919050565b60006124648261241c565b9050919050565b82818337600083830152505050565b60005b8381101561249857808201518184015260208101905061247d565b838111156124a7576000848401525b50505050565b6000601f19601f8301169050919050565b600281106124c857fe5b50565b6124d48161244f565b81146124df57600080fd5b5056fea365627a7a723158207b186a01b58a957eb0c012e8d9dd88053e5ee007b0526ec17136031c6f7c92a06c6578706572696d656e74616cf564736f6c63430005100040",
  "source": "// SPDX-License-Identifier: MIT\npragma experimental ABIEncoderV2;\npragma solidity >=0.4.22 <0.9.0;\n\ncontract SmartBlogs {\n\n\tenum BlogType {PAID, UNPAID}\n\n\tstruct Blog {\n\t\tuint blogId;\n\t\tstring blogTitle;\n\t\tstring blogContent;\n\t\tBlogType paid;\n\t\tuint value;\n\t\taddress payable ownerId;\n\t}\n\n\tstruct BlogTitle {\n\t\tuint blogId;\n\t\tstring blogTitle;\n\t\tBlogType paid;\n\t\tuint value;\n\t\taddress ownerId;\n\t}\n\n\n\tuint blogCounter = 0;\n\t// @dev address of the person who is the owner of a blog\n\tmapping(uint => address) owners;\n\t// @dev addresses of the viewers who have viewed a particular blog\n\tmapping(uint => address[]) viewers;\n\t// @dev list of blogs which each person has viewed - paid or unpaid\n\tmapping(address => Blog[]) myPaidBlogs;\n\t// @dev list of blogs which each person has added\n\tmapping(address => Blog[]) myOwnedBlogs;\n\n\t// @dev list of all the blogs posted\n\tBlog[] private blogs;\n\n\tmodifier onlyOwner(uint blogId) {\n\t\trequire(\n\t\t\towners[blogId] == msg.sender,\n\t\t\t\"You are not the owner of this blog\"\n\t\t);\n\t\t_;\n\t}\n\n\tfunction addBlog(string memory blogTitle, string memory blogContent, uint value) public {\n\t\tBlog memory blog = Blog(blogCounter, blogTitle, blogContent, value == 0 ? BlogType.UNPAID : BlogType.PAID, value, msg.sender);\n\t\towners[blogCounter] = msg.sender;\n\t\tmyOwnedBlogs[msg.sender].push(blog);\n\t\tblogs.push(blog);\n\t\tblogCounter++;\n\t}\n\n\tfunction listBlogs() public view returns (BlogTitle[] memory) {\n\t\tBlogTitle[] memory blogsWithOnlyTitles = new BlogTitle[](blogs.length);\n\t\tfor(uint i = 0; i < blogs.length; i++) {\n\t\t\tBlogTitle memory blogWithOnlyTitle = BlogTitle(blogs[i].blogId, blogs[i].blogTitle, blogs[i].paid, blogs[i].value, blogs[i].ownerId);\n\t\t\tblogsWithOnlyTitles[i] = blogWithOnlyTitle;\n\t\t}\n\t\treturn blogsWithOnlyTitles;\n\t}\n\n\tfunction listFreeBlogs() public view returns (BlogTitle[] memory) {\n\t\tuint numFreeBlogs = 0;\n\t\tfor(uint i = 0; i < blogs.length; i++) {\n\t\t\tif(blogs[i].value != 0) {\n\t\t\t\tnumFreeBlogs++;\n\t\t\t}\n\t\t}\n\t\tBlogTitle[] memory blogsWithOnlyTitles = new BlogTitle[](numFreeBlogs);\n\t\tuint index = 0;\n\t\tfor(uint i = 0; i < blogs.length; i++) {\n\t\t\tif(blogs[i].value == 0) {\n\t\t\t\tblogsWithOnlyTitles[index++] = BlogTitle(blogs[i].blogId, blogs[i].blogTitle, blogs[i].paid, blogs[i].value, blogs[i].ownerId);\n\t\t\t}\n\t\t}\n\t\treturn blogsWithOnlyTitles;\n\t}\n\n\tfunction payForBlog(uint blogId) public payable {\n\t\tbool flag = false;\n\t\tfor(uint i = 0; i < myPaidBlogs[msg.sender].length; i++) {\n\t\t\tif(blogId == myPaidBlogs[msg.sender][i].blogId) {\n\t\t\t\tflag = true;\n\t\t\t\tbreak;\n\t\t\t}\n\t\t}\n\t\trequire(\n\t\t\tflag == false,\n\t\t\t\"You have already paid for this blog !\"\n\t\t);\n\n\t\trequire(\n\t\t\tmsg.value == blogs[blogId].value,\n\t\t\t\"Sent amount should be equal to blog price !\"\n\t\t);\n\t\t\n\t\tviewers[blogId].push(msg.sender);\n\t\tmyPaidBlogs[msg.sender].push(blogs[blogId]);\n\n\t\taddress payable ownerAddress = blogs[blogId].ownerId;\n\t\townerAddress.transfer(blogs[blogId].value);\n\t}\n\n\tfunction viewBlog(uint blogId) public view returns (Blog memory) {\n\t\tif(blogs[blogId].value == 0) {\n\t\t\treturn blogs[blogId];\n\t\t}\n\n\t\tbool flag = false;\n\t\tfor(uint i = 0; i < myPaidBlogs[msg.sender].length; i++) {\n\t\t\tif(blogId == myPaidBlogs[msg.sender][i].blogId) {\n\t\t\t\tflag = true;\n\t\t\t\tbreak;\n\t\t\t}\n\t\t}\n\t\trequire(\n\t\t\tflag, \"You have not paid for this blog !!!\"\n\t\t);\n\n\t\treturn blogs[blogId];\n\t}\n\n\tfunction getBlogsPaidFor() public view returns (Blog[] memory) {\n\t\treturn myPaidBlogs[msg.sender];\n\t}\n\n\tfunction getOwnedBlogs() public view returns (Blog[] memory) {\n\t\treturn myOwnedBlogs[msg.sender];\n\t}\n\n\tfunction getBlogViewers(uint blogId) public view onlyOwner(blogId) returns(address[] memory) {\n\t\treturn viewers[blogId];\n\t}\n\n\tconstructor() public {\n\t}\n}\n",
  "sourcePath": "/home/daksh0225/Sem7/DTB/SmartBlogs/contracts/SmartBlogs.sol",
  "compiler": {
    "name": "solc",
    "version": "0.5.16+commit.9c3226ce.Emscripten.clang"
  },
  "schemaVersion": "3.4.3",
  "updatedAt": "2021-12-03T19:57:44.149Z",
  "networkType": "ethereum",
  "devdoc": {
    "methods": {}
  },
  "userdoc": {
    "methods": {}
  }
}